{
  "abi": [
    {
      "inputs": [
        {
          "internalType": "address",
          "name": "chainlog_",
          "type": "address"
        }
      ],
      "stateMutability": "nonpayable",
      "type": "constructor"
    },
    {
      "inputs": [],
      "name": "changelog",
      "outputs": [
        {
          "internalType": "contract ChainLogLike",
          "name": "",
          "type": "address"
        }
      ],
      "stateMutability": "view",
      "type": "function"
    },
    {
      "inputs": [],
      "name": "dai",
      "outputs": [
        {
          "internalType": "contract Dai",
          "name": "",
          "type": "address"
        }
      ],
      "stateMutability": "view",
      "type": "function"
    },
    {
      "inputs": [],
      "name": "gusd",
      "outputs": [
        {
          "internalType": "contract Gusd",
          "name": "",
          "type": "address"
        }
      ],
      "stateMutability": "view",
      "type": "function"
    }
  ],
  "bytecode": {
    "object": "0x60e060405234801561001057600080fd5b506040516102bd3803806102bd83398101604081905261002f9161015c565b6001600160a01b03811660808190526040516321f8a72160e01b81526311d554d160e21b60048201526321f8a72190602401602060405180830381865afa15801561007e573d6000803e3d6000fd5b505050506040513d601f19601f820116820180604052508101906100a2919061015c565b600080546001600160a01b0319166001600160a01b039283161790556080516040516321f8a72160e01b8152664d43445f44414960c81b60048201529116906321f8a72190602401602060405180830381865afa158015610107573d6000803e3d6000fd5b505050506040513d601f19601f8201168201806040525081019061012b919061015c565b600180546001600160a01b0319166001600160a01b0392831690811790915560005490911660a05260c0525061018c565b60006020828403121561016e57600080fd5b81516001600160a01b038116811461018557600080fd5b9392505050565b60805160a05160c0516101056101b8600039600060ad01526000608701526000604501526101056000f3fe6080604052348015600f57600080fd5b5060043610603c5760003560e01c80637438e9151460415780638c87ee90146083578063f4b9fa751460a9575b600080fd5b60677f000000000000000000000000000000000000000000000000000000000000000081565b6040516001600160a01b03909116815260200160405180910390f35b60677f000000000000000000000000000000000000000000000000000000000000000081565b60677f00000000000000000000000000000000000000000000000000000000000000008156fea264697066735822122012e1da9f5f53e589b798eb4aadcd56fe264d8cbfac7aa3a3116abc37b151fb7764736f6c63430008110033",
    "linkReferences": {}
  },
  "methodIdentifiers": {
    "changelog()": "7438e915",
    "dai()": "f4b9fa75",
    "gusd()": "8c87ee90"
  },
  "id": 14
}